{
  "_format": "hh-sol-artifact-1",
  "contractName": "HackTriage",
  "sourceName": "contracts/HackTriage.sol",
  "abi": [
    {
      "inputs": [
        {
          "internalType": "uint8",
          "name": "got",
          "type": "uint8"
        },
        {
          "internalType": "uint8",
          "name": "expected",
          "type": "uint8"
        }
      ],
      "name": "InvalidEncryptedInput",
      "type": "error"
    },
    {
      "inputs": [
        {
          "internalType": "int32",
          "name": "value",
          "type": "int32"
        }
      ],
      "name": "SecurityZoneOutOfBounds",
      "type": "error"
    },
    {
      "anonymous": false,
      "inputs": [
        {
          "indexed": true,
          "internalType": "address",
          "name": "caller",
          "type": "address"
        },
        {
          "indexed": false,
          "internalType": "uint64",
          "name": "blockNumber",
          "type": "uint64"
        }
      ],
      "name": "TriageSubmitted",
      "type": "event"
    },
    {
      "inputs": [
        {
          "internalType": "address",
          "name": "consumer",
          "type": "address"
        }
      ],
      "name": "allowConsumer",
      "outputs": [],
      "stateMutability": "nonpayable",
      "type": "function"
    },
    {
      "inputs": [
        {
          "internalType": "address",
          "name": "",
          "type": "address"
        }
      ],
      "name": "latest",
      "outputs": [
        {
          "internalType": "euint16",
          "name": "classBits",
          "type": "bytes32"
        },
        {
          "internalType": "euint8",
          "name": "severity",
          "type": "bytes32"
        },
        {
          "internalType": "uint64",
          "name": "blockNumber",
          "type": "uint64"
        }
      ],
      "stateMutability": "view",
      "type": "function"
    },
    {
      "inputs": [
        {
          "components": [
            {
              "internalType": "uint256",
              "name": "ctHash",
              "type": "uint256"
            },
            {
              "internalType": "uint8",
              "name": "securityZone",
              "type": "uint8"
            },
            {
              "internalType": "uint8",
              "name": "utype",
              "type": "uint8"
            },
            {
              "internalType": "bytes",
              "name": "signature",
              "type": "bytes"
            }
          ],
          "internalType": "struct InEuint16",
          "name": "encFeatures",
          "type": "tuple"
        }
      ],
      "name": "triage",
      "outputs": [
        {
          "internalType": "euint16",
          "name": "classBits",
          "type": "bytes32"
        },
        {
          "internalType": "euint8",
          "name": "severity",
          "type": "bytes32"
        }
      ],
      "stateMutability": "nonpayable",
      "type": "function"
    }
  ],
  "bytecode": "0x608080604052346015576113e6908161001b8239f35b600080fdfe6080604081815260048036101561001557600080fd5b600092833560e01c9081632d94964f146100e6575080634a4aac1a1461008e5763538f8f5e1461004457600080fd5b3461008a57602036600319011261008a57356001600160a01b038116810361008a57600161008792338552846020528420610080838254610d99565b0154610d99565b80f35b8280fd5b503461008a57602036600319011261008a57356001600160a01b0381169081900361008a5782829160609452806020522080549167ffffffffffffffff60026001840154930154169181519384526020840152820152f35b849291503461008a57602090600319938285360112610a6a5783359467ffffffffffffffff9081871161008a576080908736030112610a665761012883610a6d565b85850135835260249261013c848801610b0d565b9685820197885261014f60448201610b0d565b90898301918252606481013590848211610a625701973660238a0112156109f9578789013598848a11610a5057601f19998b51916101948a8d601f8501160184610aeb565b81835236898383010111610a4c578188928a8c9301838601378301015260ff606093848601928352511693600394858103610a305750889160ff8d9481808e9589808e8b51906101e382610a6d565b808252808c8301528c82015201525192511693519387519261020484610a6d565b8352868301908152878301928a845289810195865288519889976313fce3b160e11b89528801525160448701525116606485015251166084830152519a608060a4830152878c51809d8160c4860152825b828110610a0e57505091839160e4809484010152338b830152601f73ea30c4b8b44078bbf8a6ef5b9f1ec1626c7848d99e01168101030181888d5af1908115610a045785916109d3575b506102c26102b46102ae61112b565b83610deb565b6102bc61112b565b90610e90565b928a51936102cf85610acf565b8685528b516102dd81610a6d565b82815284368b83013760016102f182611070565b52826102fc82611093565b528051956002968710156109c157918a828f8f90958f97968d90818c61033899015251809781958294631888debd60e01b9c8d85528401610f9f565b03925af180156109b7578990610982575b610370925061035661127a565b9181811561088c575b1561087c575b821561086c57610fc4565b61038c61038461037e6111a1565b86610deb565b6102bc6111a1565b8d518e61039882610acf565b8a825251906103a682610a6d565b84825287368e840137886103b983611070565b52846103c483611093565b5281518910156108e2578f908f8f8f93898f916103f190838f8a0152519788968795869485528401610f9f565b03925af19081156108d7578a91610953575b5061041b92916104159161035661127a565b90610b20565b61043161042961037e6111d7565b6102bc6111d7565b8d518e61043d82610acf565b8a8252519061044b82610a6d565b84825287368e8401378d61045e83611070565b528461046983611093565b5281518910156108e2578f908f8f8f93898f9161049690838f8a0152519788968795869485528401610f9f565b03925af19081156108d7578a91610924575b506104ba92916104159161035661127a565b6104d06104c861037e61120d565b6102bc61120d565b8d518e6104dc82610acf565b8a825251906104ea82610a6d565b84825287368e84013760086104fe83611070565b528461050983611093565b5281518910156108e2578f908f8f8f93898f9161053690838f8a0152519788968795869485528401610f9f565b03925af19081156108d7578a916108f5575b5061055a92916104159161035661127a565b61057061056861037e611243565b6102bc611243565b8d518e61057c82610acf565b8a8252519061058a82610a6d565b84825287368e840137601061059e83611070565b52846105a983611093565b5281518910156108e2578f908f8f8f93898f916105d690838f8a0152519788968795869485528401610f9f565b03925af19081156108d757908f9392918b9161089c575b506105ff92916104159161035661127a565b9b6106ac6105686106a361068c6106756106638a61065d6106336102b46106246110a3565b9361062d61112b565b90610deb565b61063b611339565b6106436110a3565b9181811561080d575b156107fd575b82156107ed5761101a565b90610c40565b61065d6106336103848d61062d6111a1565b61065d6106336104296106866111d7565b8d610deb565b61065d6106336104c861069d61120d565b8c610deb565b9661062d611243565b938251926106b984610acf565b8a845251936106c785610a6d565b845286368d86013760016106da85611070565b52876106e585611093565b52835188101561085a57908c8f8d94936107108d92838c8a0152519788968795869485528401610f69565b03925af190811561085057879161081d575b50610734929161065d916106436110a3565b96834316958a5192830191838310868411176107dc5750508952878152858101878152898083019587875233815280895220915182555160018201550191511667ffffffffffffffff1982541617905561078d84610ce5565b61079683610ce5565b61079f84610d51565b6107a883610d51565b84519081527f64db072300a25101529d68cedafafdb06ffeea05e13ae2c825d4e63071135292823392a28351928352820152f35b634e487b7160e01b87526041905285fd5b91506107f76110a3565b9161101a565b90506108076110a3565b90610652565b90506108176112af565b9061064c565b90508881813d8311610849575b6108348183610aeb565b810103126108455751610734610722565b8680fd5b503d61082a565b8c513d89823e3d90fd5b634e487b7160e01b8a5260328d528a8afd5b915061087661127a565b91610fc4565b905061088661127a565b90610365565b90506108966112af565b9061035f565b80929394508d8092503d83116108d0575b6108b78183610aeb565b810103126108cc57518e9291906105ff6105ed565b8980fd5b503d6108ad565b508e513d8b823e3d90fd5b50634e487b7160e01b8a5260328d528a8afd5b90508b81813d831161091d575b61090c8183610aeb565b810103126108cc575161055a610548565b503d610902565b90508b81813d831161094c575b61093b8183610aeb565b810103126108cc57516104ba6104a8565b503d610931565b90508b81813d831161097b575b61096a8183610aeb565b810103126108cc575161041b610403565b503d610960565b50908a81813d83116109b0575b6109998183610aeb565b810103126109ac57906103709151610349565b8880fd5b503d61098f565b8e513d8b823e3d90fd5b634e487b7160e01b895260328c528989fd5b90508681813d83116109fd575b6109ea8183610aeb565b810103126109f957518a61029f565b8480fd5b503d6109e0565b8a513d87823e3d90fd5b925093505083818495939501015160e482870101520191878c85938c95610255565b8a868a8f9360449451936367cf307160e01b8552840152820152fd5b8780fd5b634e487b7160e01b8652604189528686fd5b8580fd5b5080fd5b80fd5b6080810190811067ffffffffffffffff821117610a8957604052565b634e487b7160e01b600052604160045260246000fd5b67ffffffffffffffff8111610a8957604052565b6060810190811067ffffffffffffffff821117610a8957604052565b6020810190811067ffffffffffffffff821117610a8957604052565b90601f8019910116810190811067ffffffffffffffff821117610a8957604052565b359060ff82168203610b1b57565b600080fd5b908115610c30575b8015610c22575b60405191610b3c83610ab3565b600283526040366020850137610b5183611070565b52610b5b82611093565b52604051610b6881610acf565b6020610ba7600093848452610bb96040519485938493631888debd60e01b855260036004860152600b6024860152608060448601526084850190610f35565b83810360031901606485015290610f35565b03818573ea30c4b8b44078bbf8a6ef5b9f1ec1626c7848d95af1918215610c16578092610be557505090565b9091506020823d602011610c0e575b81610c0160209383610aeb565b81010312610a6a57505190565b3d9150610bf4565b604051903d90823e3d90fd5b50610c2b61127a565b610b2f565b9050610c3a61127a565b90610b28565b908115610cd5575b8015610cc7575b60405191610c5c83610ab3565b600283526040366020850137610c7183611070565b52610c7b82611093565b52604051610c8881610acf565b6020610ba7600093848452610bb96040519485938493631888debd60e01b85526002600486015260086024860152608060448601526084850190610f35565b50610cd06110a3565b610c4f565b9050610cdf6110a3565b90610c48565b73ea30c4b8b44078bbf8a6ef5b9f1ec1626c7848d9803b15610b1b57604051631974142760e21b815260048101929092523060248301526000908290818381604481015b03925af18015610d4557610d3a5750565b610d4390610a9f565b565b6040513d6000823e3d90fd5b73ea30c4b8b44078bbf8a6ef5b9f1ec1626c7848d9803b15610b1b57604051631974142760e21b81526004810192909252336024830152600090829081838160448101610d29565b73ea30c4b8b44078bbf8a6ef5b9f1ec1626c7848d991823b15610b1b57604051631974142760e21b815260048101929092526001600160a01b0316602482015290600090829081838160448101610d29565b908115610e80575b8015610e72575b60405191610e0783610ab3565b600283526040366020850137610e1c83611070565b52610e2682611093565b52604051610e3381610acf565b6020610ba7600093848452610bb96040519485938493631888debd60e01b855260036004860152600a6024860152608060448601526084850190610f35565b50610e7b61127a565b610dfa565b9050610e8a61127a565b90610df3565b908115610f25575b8015610f17575b60405191610eac83610ab3565b600283526040366020850137610ec183611070565b52610ecb82611093565b52604051610ed881610acf565b6020610ba7600093848452610bb96040519485938493631888debd60e01b85526003600486015260186024860152608060448601526084850190610f35565b50610f2061127a565b610e9f565b9050610f2f61127a565b90610e98565b90815180825260208080930193019160005b828110610f55575050505090565b835185529381019392810192600101610f47565b9091610f8e610f9c9360028452601a6020850152608060408501526080840190610f35565b916060818403910152610f35565b90565b9091610f8e610f9c9360038452601a6020850152608060408501526080840190610f35565b90610fcf929161136f565b604051610fdb81610acf565b6020610ba7600093848452610bb96040519485938493631888debd60e01b85526003600486015260046024860152608060448601526084850190610f35565b90611025929161136f565b60405161103181610acf565b6020610ba7600093848452610bb96040519485938493631888debd60e01b85526002600486015260046024860152608060448601526084850190610f35565b80511561107d5760200190565b634e487b7160e01b600052603260045260246000fd5b80516001101561107d5760400190565b6040516110af81610acf565b600090818152604051906110c282610a6d565b600382526060366020840137826110d883611070565b5260026110e483611093565b528151600210156111175781602091846060610bb99501526040519384928392631888debd60e01b845260048401610f69565b634e487b7160e01b83526032600452602483fd5b60405161113781610acf565b6000908181526040519061114a82610a6d565b60038252606036602084013761018161116283611070565b52600361116e83611093565b528151600210156111175781602091846060610bb99501526040519384928392631888debd60e01b845260048401610f9f565b6040516111ad81610acf565b600090818152604051906111c082610a6d565b600382526060366020840137601c61116283611070565b6040516111e381610acf565b600090818152604051906111f682610a6d565b600382526060366020840137604261116283611070565b60405161121981610acf565b6000908181526040519061122c82610a6d565b600382526060366020840137602c61116283611070565b60405161124f81610acf565b6000908181526040519061126282610a6d565b60038252606036602084013761024061116283611070565b60405161128681610acf565b6000908181526040519061129982610a6d565b6003825260603660208401378261116283611070565b6040516112bb81610acf565b600090818152604051906112ce82610a6d565b600382526060366020840137826112e483611070565b52826112ef83611093565b5281516002101561111757610ba7602091846060850152610bb96040519485938493631888debd60e01b8552886004860152601a6024860152608060448601526084850190610f35565b60405161134581610acf565b6000908181526040519061135882610a6d565b60038252606036602084013760026110d883611070565b91906040519261137e84610a6d565b60038452606036602086013761139384611070565b5261139d83611093565b5281516002101561107d5760608201529056fea2646970667358221220ce7f8bd5a192235b09db408f851e25710f1639f5d8d73cd360853811de0ee52264736f6c63430008190033",
  "linkReferences": {},
  "deployedLinkReferences": {}
}